{
  "_format": "hh-sol-artifact-1",
  "contractName": "Lottery",
  "sourceName": "contracts/Lottery.sol",
  "abi": [
    {
      "inputs": [
        {
          "internalType": "uint256",
          "name": "_maxPlayers",
          "type": "uint256"
        },
        {
          "internalType": "uint256",
          "name": "_entryFee",
          "type": "uint256"
        },
        {
          "internalType": "address",
          "name": "_owner",
          "type": "address"
        }
      ],
      "stateMutability": "nonpayable",
      "type": "constructor"
    },
    {
      "inputs": [
        {
          "internalType": "address",
          "name": "have",
          "type": "address"
        },
        {
          "internalType": "address",
          "name": "want",
          "type": "address"
        }
      ],
      "name": "OnlyVRFWrapperCanFulfill",
      "type": "error"
    },
    {
      "anonymous": false,
      "inputs": [
        {
          "indexed": false,
          "internalType": "uint256",
          "name": "chosenNumber",
          "type": "uint256"
        },
        {
          "indexed": false,
          "internalType": "address",
          "name": "winner",
          "type": "address"
        }
      ],
      "name": "LotteryClosed",
      "type": "event"
    },
    {
      "anonymous": false,
      "inputs": [
        {
          "indexed": true,
          "internalType": "address",
          "name": "from",
          "type": "address"
        },
        {
          "indexed": true,
          "internalType": "address",
          "name": "to",
          "type": "address"
        }
      ],
      "name": "OwnershipTransferRequested",
      "type": "event"
    },
    {
      "anonymous": false,
      "inputs": [
        {
          "indexed": true,
          "internalType": "address",
          "name": "from",
          "type": "address"
        },
        {
          "indexed": true,
          "internalType": "address",
          "name": "to",
          "type": "address"
        }
      ],
      "name": "OwnershipTransferred",
      "type": "event"
    },
    {
      "anonymous": false,
      "inputs": [
        {
          "indexed": true,
          "internalType": "address",
          "name": "player",
          "type": "address"
        },
        {
          "indexed": false,
          "internalType": "uint256",
          "name": "totalPlayers",
          "type": "uint256"
        }
      ],
      "name": "PlayerEntered",
      "type": "event"
    },
    {
      "anonymous": false,
      "inputs": [
        {
          "indexed": false,
          "internalType": "uint256",
          "name": "",
          "type": "uint256"
        }
      ],
      "name": "RandomNumberHandled",
      "type": "event"
    },
    {
      "anonymous": false,
      "inputs": [
        {
          "indexed": false,
          "internalType": "address",
          "name": "",
          "type": "address"
        },
        {
          "indexed": false,
          "internalType": "uint256",
          "name": "",
          "type": "uint256"
        }
      ],
      "name": "Received",
      "type": "event"
    },
    {
      "anonymous": false,
      "inputs": [
        {
          "indexed": false,
          "internalType": "uint256",
          "name": "requestId",
          "type": "uint256"
        },
        {
          "indexed": false,
          "internalType": "uint256[]",
          "name": "randomWords",
          "type": "uint256[]"
        },
        {
          "indexed": false,
          "internalType": "uint256",
          "name": "payment",
          "type": "uint256"
        }
      ],
      "name": "RequestFulfilled",
      "type": "event"
    },
    {
      "anonymous": false,
      "inputs": [
        {
          "indexed": false,
          "internalType": "uint256",
          "name": "requestId",
          "type": "uint256"
        },
        {
          "indexed": false,
          "internalType": "uint32",
          "name": "numWords",
          "type": "uint32"
        }
      ],
      "name": "RequestSent",
      "type": "event"
    },
    {
      "inputs": [],
      "name": "acceptOwnership",
      "outputs": [],
      "stateMutability": "nonpayable",
      "type": "function"
    },
    {
      "inputs": [],
      "name": "enter",
      "outputs": [],
      "stateMutability": "payable",
      "type": "function"
    },
    {
      "inputs": [],
      "name": "entryFee",
      "outputs": [
        {
          "internalType": "uint256",
          "name": "",
          "type": "uint256"
        }
      ],
      "stateMutability": "view",
      "type": "function"
    },
    {
      "inputs": [],
      "name": "getBalance",
      "outputs": [
        {
          "internalType": "uint256",
          "name": "",
          "type": "uint256"
        }
      ],
      "stateMutability": "view",
      "type": "function"
    },
    {
      "inputs": [],
      "name": "getLinkBalance",
      "outputs": [
        {
          "internalType": "uint256",
          "name": "",
          "type": "uint256"
        }
      ],
      "stateMutability": "view",
      "type": "function"
    },
    {
      "inputs": [],
      "name": "getLinkToken",
      "outputs": [
        {
          "internalType": "contract LinkTokenInterface",
          "name": "",
          "type": "address"
        }
      ],
      "stateMutability": "view",
      "type": "function"
    },
    {
      "inputs": [
        {
          "internalType": "uint256",
          "name": "_requestId",
          "type": "uint256"
        }
      ],
      "name": "getRequestStatus",
      "outputs": [
        {
          "internalType": "uint256",
          "name": "paid",
          "type": "uint256"
        },
        {
          "internalType": "bool",
          "name": "fulfilled",
          "type": "bool"
        },
        {
          "internalType": "uint256[]",
          "name": "randomWords",
          "type": "uint256[]"
        }
      ],
      "stateMutability": "view",
      "type": "function"
    },
    {
      "inputs": [],
      "name": "i_vrfV2PlusWrapper",
      "outputs": [
        {
          "internalType": "contract IVRFV2PlusWrapper",
          "name": "",
          "type": "address"
        }
      ],
      "stateMutability": "view",
      "type": "function"
    },
    {
      "inputs": [],
      "name": "isActive",
      "outputs": [
        {
          "internalType": "bool",
          "name": "",
          "type": "bool"
        }
      ],
      "stateMutability": "view",
      "type": "function"
    },
    {
      "inputs": [],
      "name": "lastRequestId",
      "outputs": [
        {
          "internalType": "uint256",
          "name": "",
          "type": "uint256"
        }
      ],
      "stateMutability": "view",
      "type": "function"
    },
    {
      "inputs": [],
      "name": "maxPlayers",
      "outputs": [
        {
          "internalType": "uint256",
          "name": "",
          "type": "uint256"
        }
      ],
      "stateMutability": "view",
      "type": "function"
    },
    {
      "inputs": [],
      "name": "owner",
      "outputs": [
        {
          "internalType": "address",
          "name": "",
          "type": "address"
        }
      ],
      "stateMutability": "view",
      "type": "function"
    },
    {
      "inputs": [],
      "name": "playerCount",
      "outputs": [
        {
          "internalType": "uint256",
          "name": "",
          "type": "uint256"
        }
      ],
      "stateMutability": "view",
      "type": "function"
    },
    {
      "inputs": [
        {
          "internalType": "uint256",
          "name": "",
          "type": "uint256"
        }
      ],
      "name": "players",
      "outputs": [
        {
          "internalType": "address payable",
          "name": "",
          "type": "address"
        }
      ],
      "stateMutability": "view",
      "type": "function"
    },
    {
      "inputs": [
        {
          "internalType": "uint256",
          "name": "_requestId",
          "type": "uint256"
        },
        {
          "internalType": "uint256[]",
          "name": "_randomWords",
          "type": "uint256[]"
        }
      ],
      "name": "rawFulfillRandomWords",
      "outputs": [],
      "stateMutability": "nonpayable",
      "type": "function"
    },
    {
      "inputs": [
        {
          "internalType": "uint256",
          "name": "",
          "type": "uint256"
        }
      ],
      "name": "reqStatus",
      "outputs": [
        {
          "internalType": "uint256",
          "name": "paid",
          "type": "uint256"
        },
        {
          "internalType": "bool",
          "name": "fulfilled",
          "type": "bool"
        }
      ],
      "stateMutability": "view",
      "type": "function"
    },
    {
      "inputs": [
        {
          "internalType": "uint256",
          "name": "",
          "type": "uint256"
        }
      ],
      "name": "requestIds",
      "outputs": [
        {
          "internalType": "uint256",
          "name": "",
          "type": "uint256"
        }
      ],
      "stateMutability": "view",
      "type": "function"
    },
    {
      "inputs": [
        {
          "internalType": "bool",
          "name": "payWithEth",
          "type": "bool"
        }
      ],
      "name": "requestRandomWords",
      "outputs": [
        {
          "internalType": "uint256",
          "name": "",
          "type": "uint256"
        }
      ],
      "stateMutability": "nonpayable",
      "type": "function"
    },
    {
      "inputs": [],
      "name": "toggleOnOff",
      "outputs": [],
      "stateMutability": "nonpayable",
      "type": "function"
    },
    {
      "inputs": [
        {
          "internalType": "address",
          "name": "to",
          "type": "address"
        }
      ],
      "name": "transferOwnership",
      "outputs": [],
      "stateMutability": "nonpayable",
      "type": "function"
    },
    {
      "inputs": [],
      "name": "withdrawLink",
      "outputs": [],
      "stateMutability": "nonpayable",
      "type": "function"
    },
    {
      "inputs": [
        {
          "internalType": "uint256",
          "name": "amount",
          "type": "uint256"
        }
      ],
      "name": "withdrawNative",
      "outputs": [],
      "stateMutability": "nonpayable",
      "type": "function"
    },
    {
      "stateMutability": "payable",
      "type": "receive"
    }
  ],
  "bytecode": "0x60c060405234801561001057600080fd5b50604051612d31380380612d318339818101604052810190610032919061041c565b8080600073195f15f2d49d693ce265b4fb0fddbe15b1850cc160008190508073ffffffffffffffffffffffffffffffffffffffff16631c4695f46040518163ffffffff1660e01b8152600401602060405180830381865afa15801561009b573d6000803e3d6000fd5b505050506040513d601f19601f820116820180604052508101906100bf919061046f565b73ffffffffffffffffffffffffffffffffffffffff1660808173ffffffffffffffffffffffffffffffffffffffff16815250508073ffffffffffffffffffffffffffffffffffffffff1660a08173ffffffffffffffffffffffffffffffffffffffff16815250505050600073ffffffffffffffffffffffffffffffffffffffff168273ffffffffffffffffffffffffffffffffffffffff1603610197576040517f08c379a000000000000000000000000000000000000000000000000000000000815260040161018e906104f9565b60405180910390fd5b816000806101000a81548173ffffffffffffffffffffffffffffffffffffffff021916908373ffffffffffffffffffffffffffffffffffffffff160217905550600073ffffffffffffffffffffffffffffffffffffffff168173ffffffffffffffffffffffffffffffffffffffff161461021b5761021a8161025760201b60201c565b5b505050826005819055508160068190555060006007819055506001600960006101000a81548160ff021916908315150217905550505050610585565b3373ffffffffffffffffffffffffffffffffffffffff168173ffffffffffffffffffffffffffffffffffffffff16036102c5576040517f08c379a00000000000000000000000000000000000000000000000000000000081526004016102bc90610565565b60405180910390fd5b80600160006101000a81548173ffffffffffffffffffffffffffffffffffffffff021916908373ffffffffffffffffffffffffffffffffffffffff1602179055508073ffffffffffffffffffffffffffffffffffffffff1660008054906101000a900473ffffffffffffffffffffffffffffffffffffffff1673ffffffffffffffffffffffffffffffffffffffff167fed8889f560326eb138920d842192f0eb3dd22b4f139c87a2c57538e05bae127860405160405180910390a350565b600080fd5b6000819050919050565b61039b81610388565b81146103a657600080fd5b50565b6000815190506103b881610392565b92915050565b600073ffffffffffffffffffffffffffffffffffffffff82169050919050565b60006103e9826103be565b9050919050565b6103f9816103de565b811461040457600080fd5b50565b600081519050610416816103f0565b92915050565b60008060006060848603121561043557610434610383565b5b6000610443868287016103a9565b9350506020610454868287016103a9565b925050604061046586828701610407565b9150509250925092565b60006020828403121561048557610484610383565b5b600061049384828501610407565b91505092915050565b600082825260208201905092915050565b7f43616e6e6f7420736574206f776e657220746f207a65726f0000000000000000600082015250565b60006104e360188361049c565b91506104ee826104ad565b602082019050919050565b60006020820190508181036000830152610512816104d6565b9050919050565b7f43616e6e6f74207472616e7366657220746f2073656c66000000000000000000600082015250565b600061054f60178361049c565b915061055a82610519565b602082019050919050565b6000602082019050818103600083015261057e81610542565b9050919050565b60805160a0516127566105db6000396000818161053c01528181610c5c0152818161139e0152818161143c015281816114ed015281816115c70152611671015260008181610d9c015261158b01526127566000f3fe6080604052600436106101395760003560e01c80638796ba8c116100ab578063e76d51681161006f578063e76d516814610426578063e97dcb6214610451578063f2fde38b1461045b578063f71d96cb14610484578063fc2a88c3146104c1578063fc702cc1146104ec57610179565b80638796ba8c1461033d5780638da5cb5b1461037a5780638dc654a2146103a55780639ed0868d146103bc578063d8a4676f146103e757610179565b80634c2412a2116100fd5780634c2412a21461025357806350c5f9751461027e5780635c2e5235146102a95780637392a771146102c057806379ba5097146102fd57806384276d811461031457610179565b8063072ea61c1461017e57806312065fe0146101a95780631fe543e3146101d457806322f3e2d4146101fd578063302bcc571461022857610179565b36610179577f88a5966d370b9919b20f3e2c13ff65706f196a4e32cc2c12bf57088f88525874333460405161016f9291906118f9565b60405180910390a1005b600080fd5b34801561018a57600080fd5b5061019361052a565b6040516101a09190611922565b60405180910390f35b3480156101b557600080fd5b506101be610530565b6040516101cb9190611922565b60405180910390f35b3480156101e057600080fd5b506101fb60048036038101906101f69190611ad6565b610538565b005b34801561020957600080fd5b506102126105de565b60405161021f9190611b4d565b60405180910390f35b34801561023457600080fd5b5061023d6105f1565b60405161024a9190611922565b60405180910390f35b34801561025f57600080fd5b506102686105f7565b6040516102759190611922565b60405180910390f35b34801561028a57600080fd5b506102936105fd565b6040516102a09190611922565b60405180910390f35b3480156102b557600080fd5b506102be610692565b005b3480156102cc57600080fd5b506102e760048036038101906102e29190611b94565b6106be565b6040516102f49190611922565b60405180910390f35b34801561030957600080fd5b5061031261085f565b005b34801561032057600080fd5b5061033b60048036038101906103369190611bc1565b6109f4565b005b34801561034957600080fd5b50610364600480360381019061035f9190611bc1565b610ab3565b6040516103719190611922565b60405180910390f35b34801561038657600080fd5b5061038f610ad7565b60405161039c9190611bee565b60405180910390f35b3480156103b157600080fd5b506103ba610b00565b005b3480156103c857600080fd5b506103d1610c5a565b6040516103de9190611c68565b60405180910390f35b3480156103f357600080fd5b5061040e60048036038101906104099190611bc1565b610c7e565b60405161041d93929190611d41565b60405180910390f35b34801561043257600080fd5b5061043b610d98565b6040516104489190611da0565b60405180910390f35b610459610dc0565b005b34801561046757600080fd5b50610482600480360381019061047d9190611de7565b610f69565b005b34801561049057600080fd5b506104ab60048036038101906104a69190611bc1565b610f7d565b6040516104b89190611e35565b60405180910390f35b3480156104cd57600080fd5b506104d6610fbc565b6040516104e39190611922565b60405180910390f35b3480156104f857600080fd5b50610513600480360381019061050e9190611bc1565b610fc2565b604051610521929190611e50565b60405180910390f35b60065481565b600047905090565b60007f000000000000000000000000000000000000000000000000000000000000000090508073ffffffffffffffffffffffffffffffffffffffff163373ffffffffffffffffffffffffffffffffffffffff16146105cf5733816040517f8ba9316e0000000000000000000000000000000000000000000000000000000081526004016105c6929190611e79565b60405180910390fd5b6105d98383610ff3565b505050565b600960009054906101000a900460ff1681565b60075481565b60055481565b600073779877a7b0d9e8603169ddbd7836e478b462478973ffffffffffffffffffffffffffffffffffffffff166370a08231306040518263ffffffff1660e01b815260040161064c9190611bee565b602060405180830381865afa158015610669573d6000803e3d6000fd5b505050506040513d601f19601f8201168201806040525081019061068d9190611eb7565b905090565b600960009054906101000a900460ff1615600960006101000a81548160ff021916908315150217905550565b60006106c8611271565b60006106e36040518060200160405280851515815250611301565b9050600080841561070c576106ff620186a06003600186611399565b8092508193505050610726565b61071d620186a060036001866114e8565b80925081935050505b6040518060600160405280828152602001600015158152602001600067ffffffffffffffff81111561075b5761075a611993565b5b6040519080825280602002602001820160405280156107895781602001602082028036833780820191505090505b50815250600460008481526020019081526020016000206000820151816000015560208201518160010160006101000a81548160ff02191690831515021790555060408201518160020190805190602001906107e6929190611835565b509050506002829080600181540180825580915050600190039060005260206000200160009091909190915055816003819055507fcc58b13ad3eab50626c6a6300b1d139cd6ebb1688a7cced9461c2f7e762665ee82600160405161084c929190611f03565b60405180910390a1819350505050919050565b600160009054906101000a900473ffffffffffffffffffffffffffffffffffffffff1673ffffffffffffffffffffffffffffffffffffffff163373ffffffffffffffffffffffffffffffffffffffff16146108ef576040517f08c379a00000000000000000000000000000000000000000000000000000000081526004016108e690611f89565b60405180910390fd5b60008060009054906101000a900473ffffffffffffffffffffffffffffffffffffffff169050336000806101000a81548173ffffffffffffffffffffffffffffffffffffffff021916908373ffffffffffffffffffffffffffffffffffffffff1602179055506000600160006101000a81548173ffffffffffffffffffffffffffffffffffffffff021916908373ffffffffffffffffffffffffffffffffffffffff1602179055503373ffffffffffffffffffffffffffffffffffffffff168173ffffffffffffffffffffffffffffffffffffffff167f8be0079c531659141344cd1fd0a4f28419497f9722a3daafe3b4186f6b6457e060405160405180910390a350565b6109fc611271565b6000610a06610ad7565b73ffffffffffffffffffffffffffffffffffffffff1682604051610a2990611fda565b60006040518083038185875af1925050503d8060008114610a66576040519150601f19603f3d011682016040523d82523d6000602084013e610a6b565b606091505b5050905080610aaf576040517f08c379a0000000000000000000000000000000000000000000000000000000008152600401610aa69061203b565b60405180910390fd5b5050565b60028181548110610ac357600080fd5b906000526020600020016000915090505481565b60008060009054906101000a900473ffffffffffffffffffffffffffffffffffffffff16905090565b610b08611271565b600073779877a7b0d9e8603169ddbd7836e478b462478990508073ffffffffffffffffffffffffffffffffffffffff1663a9059cbb338373ffffffffffffffffffffffffffffffffffffffff166370a08231306040518263ffffffff1660e01b8152600401610b779190611bee565b602060405180830381865afa158015610b94573d6000803e3d6000fd5b505050506040513d601f19601f82011682018060405250810190610bb89190611eb7565b6040518363ffffffff1660e01b8152600401610bd59291906118f9565b6020604051808303816000875af1158015610bf4573d6000803e3d6000fd5b505050506040513d601f19601f82011682018060405250810190610c189190612070565b610c57576040517f08c379a0000000000000000000000000000000000000000000000000000000008152600401610c4e906120e9565b60405180910390fd5b50565b7f000000000000000000000000000000000000000000000000000000000000000081565b60008060606000600460008681526020019081526020016000206000015411610cdc576040517f08c379a0000000000000000000000000000000000000000000000000000000008152600401610cd390612155565b60405180910390fd5b600060046000868152602001908152602001600020604051806060016040529081600082015481526020016001820160009054906101000a900460ff1615151515815260200160028201805480602002602001604051908101604052809291908181526020018280548015610d7057602002820191906000526020600020905b815481526020019060010190808311610d5c575b5050505050815250509050806000015181602001518260400151935093509350509193909250565b60007f0000000000000000000000000000000000000000000000000000000000000000905090565b600960009054906101000a900460ff16610e0f576040517f08c379a0000000000000000000000000000000000000000000000000000000008152600401610e06906121c1565b60405180910390fd5b6006543414610e53576040517f08c379a0000000000000000000000000000000000000000000000000000000008152600401610e4a9061222d565b60405180910390fd5b60055460088054905010610e9c576040517f08c379a0000000000000000000000000000000000000000000000000000000008152600401610e9390612299565b60405180910390fd5b6008339080600181540180825580915050600190039060005260206000200160009091909190916101000a81548173ffffffffffffffffffffffffffffffffffffffff021916908373ffffffffffffffffffffffffffffffffffffffff16021790555060076000815480929190610f12906122e8565b91905055503373ffffffffffffffffffffffffffffffffffffffff167fc16481c9484122696a660b57df0bf6839645c6b620cb1704ac2437de13be9225600754604051610f5f9190611922565b60405180910390a2565b610f71611271565b610f7a81611709565b50565b60088181548110610f8d57600080fd5b906000526020600020016000915054906101000a900473ffffffffffffffffffffffffffffffffffffffff1681565b60035481565b60046020528060005260406000206000915090508060000154908060010160009054906101000a900460ff16905082565b600060046000848152602001908152602001600020600001541161104c576040517f08c379a000000000000000000000000000000000000000000000000000000000815260040161104390612155565b60405180910390fd5b60016004600084815260200190815260200160002060010160006101000a81548160ff021916908315150217905550806004600084815260200190815260200160002060020190805190602001906110a5929190611835565b507f147eb1ff0c82f87f2b03e2c43f5a36488ff63ec6b730195fde4605f612f8db51828260046000868152602001908152602001600020600001546040516110ef93929190612330565b60405180910390a16000600880549050826000815181106111135761111261236e565b5b602002602001015161112591906123cc565b905060006008828154811061113d5761113c61236e565b5b9060005260206000200160009054906101000a900473ffffffffffffffffffffffffffffffffffffffff16905060008173ffffffffffffffffffffffffffffffffffffffff164760405161119090611fda565b60006040518083038185875af1925050503d80600081146111cd576040519150601f19603f3d011682016040523d82523d6000602084013e6111d2565b606091505b5050905080611216576040517f08c379a000000000000000000000000000000000000000000000000000000000815260040161120d90612449565b60405180910390fd5b7fe983b889c5b0419f1fb6aded8b9552b95691be88059a486820b5c342ebf974f48460008151811061124b5761124a61236e565b5b60200260200101518360405161126292919061248a565b60405180910390a15050505050565b60008054906101000a900473ffffffffffffffffffffffffffffffffffffffff1673ffffffffffffffffffffffffffffffffffffffff163373ffffffffffffffffffffffffffffffffffffffff16146112ff576040517f08c379a00000000000000000000000000000000000000000000000000000000081526004016112f6906124ff565b60405180910390fd5b565b60607f92fd13387c7fe7befbc38d303d6468778fb9731bc4583f17d92989c6fcfdeaaa82604051602401611335919061254a565b604051602081830303815290604052907bffffffffffffffffffffffffffffffffffffffffffffffffffffffff19166020820180517bffffffffffffffffffffffffffffffffffffffffffffffffffffffff83818316178352505050509050919050565b6000807f000000000000000000000000000000000000000000000000000000000000000073ffffffffffffffffffffffffffffffffffffffff166313c34b7f87866040518363ffffffff1660e01b81526004016113f7929190612565565b602060405180830381865afa158015611414573d6000803e3d6000fd5b505050506040513d601f19601f820116820180604052508101906114389190611eb7565b90507f000000000000000000000000000000000000000000000000000000000000000073ffffffffffffffffffffffffffffffffffffffff16639cfc058e82888888886040518663ffffffff1660e01b815260040161149a949392919061262a565b60206040518083038185885af11580156114b8573d6000803e3d6000fd5b50505050506040513d601f19601f820116820180604052508101906114dd9190611eb7565b915094509492505050565b6000807f000000000000000000000000000000000000000000000000000000000000000073ffffffffffffffffffffffffffffffffffffffff166327e5c50a87866040518363ffffffff1660e01b8152600401611546929190612565565b602060405180830381865afa158015611563573d6000803e3d6000fd5b505050506040513d601f19601f820116820180604052508101906115879190611eb7565b90507f000000000000000000000000000000000000000000000000000000000000000073ffffffffffffffffffffffffffffffffffffffff16634000aea07f000000000000000000000000000000000000000000000000000000000000000083898989896040516020016115fe949392919061262a565b6040516020818303038152906040526040518463ffffffff1660e01b815260040161162b93929190612676565b6020604051808303816000875af115801561164a573d6000803e3d6000fd5b505050506040513d601f19601f8201168201806040525081019061166e9190612070565b507f000000000000000000000000000000000000000000000000000000000000000073ffffffffffffffffffffffffffffffffffffffff1663fc2a88c36040518163ffffffff1660e01b8152600401602060405180830381865afa1580156116da573d6000803e3d6000fd5b505050506040513d601f19601f820116820180604052508101906116fe9190611eb7565b915094509492505050565b3373ffffffffffffffffffffffffffffffffffffffff168173ffffffffffffffffffffffffffffffffffffffff1603611777576040517f08c379a000000000000000000000000000000000000000000000000000000000815260040161176e90612700565b60405180910390fd5b80600160006101000a81548173ffffffffffffffffffffffffffffffffffffffff021916908373ffffffffffffffffffffffffffffffffffffffff1602179055508073ffffffffffffffffffffffffffffffffffffffff1660008054906101000a900473ffffffffffffffffffffffffffffffffffffffff1673ffffffffffffffffffffffffffffffffffffffff167fed8889f560326eb138920d842192f0eb3dd22b4f139c87a2c57538e05bae127860405160405180910390a350565b828054828255906000526020600020908101928215611871579160200282015b82811115611870578251825591602001919060010190611855565b5b50905061187e9190611882565b5090565b5b8082111561189b576000816000905550600101611883565b5090565b600073ffffffffffffffffffffffffffffffffffffffff82169050919050565b60006118ca8261189f565b9050919050565b6118da816118bf565b82525050565b6000819050919050565b6118f3816118e0565b82525050565b600060408201905061190e60008301856118d1565b61191b60208301846118ea565b9392505050565b600060208201905061193760008301846118ea565b92915050565b6000604051905090565b600080fd5b600080fd5b61195a816118e0565b811461196557600080fd5b50565b60008135905061197781611951565b92915050565b600080fd5b6000601f19601f8301169050919050565b7f4e487b7100000000000000000000000000000000000000000000000000000000600052604160045260246000fd5b6119cb82611982565b810181811067ffffffffffffffff821117156119ea576119e9611993565b5b80604052505050565b60006119fd61193d565b9050611a0982826119c2565b919050565b600067ffffffffffffffff821115611a2957611a28611993565b5b602082029050602081019050919050565b600080fd5b6000611a52611a4d84611a0e565b6119f3565b90508083825260208201905060208402830185811115611a7557611a74611a3a565b5b835b81811015611a9e5780611a8a8882611968565b845260208401935050602081019050611a77565b5050509392505050565b600082601f830112611abd57611abc61197d565b5b8135611acd848260208601611a3f565b91505092915050565b60008060408385031215611aed57611aec611947565b5b6000611afb85828601611968565b925050602083013567ffffffffffffffff811115611b1c57611b1b61194c565b5b611b2885828601611aa8565b9150509250929050565b60008115159050919050565b611b4781611b32565b82525050565b6000602082019050611b626000830184611b3e565b92915050565b611b7181611b32565b8114611b7c57600080fd5b50565b600081359050611b8e81611b68565b92915050565b600060208284031215611baa57611ba9611947565b5b6000611bb884828501611b7f565b91505092915050565b600060208284031215611bd757611bd6611947565b5b6000611be584828501611968565b91505092915050565b6000602082019050611c0360008301846118d1565b92915050565b6000819050919050565b6000611c2e611c29611c248461189f565b611c09565b61189f565b9050919050565b6000611c4082611c13565b9050919050565b6000611c5282611c35565b9050919050565b611c6281611c47565b82525050565b6000602082019050611c7d6000830184611c59565b92915050565b600081519050919050565b600082825260208201905092915050565b6000819050602082019050919050565b611cb8816118e0565b82525050565b6000611cca8383611caf565b60208301905092915050565b6000602082019050919050565b6000611cee82611c83565b611cf88185611c8e565b9350611d0383611c9f565b8060005b83811015611d34578151611d1b8882611cbe565b9750611d2683611cd6565b925050600181019050611d07565b5085935050505092915050565b6000606082019050611d5660008301866118ea565b611d636020830185611b3e565b8181036040830152611d758184611ce3565b9050949350505050565b6000611d8a82611c35565b9050919050565b611d9a81611d7f565b82525050565b6000602082019050611db56000830184611d91565b92915050565b611dc4816118bf565b8114611dcf57600080fd5b50565b600081359050611de181611dbb565b92915050565b600060208284031215611dfd57611dfc611947565b5b6000611e0b84828501611dd2565b91505092915050565b6000611e1f8261189f565b9050919050565b611e2f81611e14565b82525050565b6000602082019050611e4a6000830184611e26565b92915050565b6000604082019050611e6560008301856118ea565b611e726020830184611b3e565b9392505050565b6000604082019050611e8e60008301856118d1565b611e9b60208301846118d1565b9392505050565b600081519050611eb181611951565b92915050565b600060208284031215611ecd57611ecc611947565b5b6000611edb84828501611ea2565b91505092915050565b600063ffffffff82169050919050565b611efd81611ee4565b82525050565b6000604082019050611f1860008301856118ea565b611f256020830184611ef4565b9392505050565b600082825260208201905092915050565b7f4d7573742062652070726f706f736564206f776e657200000000000000000000600082015250565b6000611f73601683611f2c565b9150611f7e82611f3d565b602082019050919050565b60006020820190508181036000830152611fa281611f66565b9050919050565b600081905092915050565b50565b6000611fc4600083611fa9565b9150611fcf82611fb4565b600082019050919050565b6000611fe582611fb7565b9150819050919050565b7f77697468647261774e6174697665206661696c65640000000000000000000000600082015250565b6000612025601583611f2c565b915061203082611fef565b602082019050919050565b6000602082019050818103600083015261205481612018565b9050919050565b60008151905061206a81611b68565b92915050565b60006020828403121561208657612085611947565b5b60006120948482850161205b565b91505092915050565b7f556e61626c6520746f207472616e736665720000000000000000000000000000600082015250565b60006120d3601283611f2c565b91506120de8261209d565b602082019050919050565b60006020820190508181036000830152612102816120c6565b9050919050565b7f72657175657374206e6f7420666f756e64000000000000000000000000000000600082015250565b600061213f601183611f2c565b915061214a82612109565b602082019050919050565b6000602082019050818103600083015261216e81612132565b9050919050565b7f4c6f7474657279206973206e6f74206163746976650000000000000000000000600082015250565b60006121ab601583611f2c565b91506121b682612175565b602082019050919050565b600060208201905081810360008301526121da8161219e565b9050919050565b7f496e636f727265637420656e7472792066656500000000000000000000000000600082015250565b6000612217601383611f2c565b9150612222826121e1565b602082019050919050565b600060208201905081810360008301526122468161220a565b9050919050565b7f4d617820706c6179657273207265616368656400000000000000000000000000600082015250565b6000612283601383611f2c565b915061228e8261224d565b602082019050919050565b600060208201905081810360008301526122b281612276565b9050919050565b7f4e487b7100000000000000000000000000000000000000000000000000000000600052601160045260246000fd5b60006122f3826118e0565b91507fffffffffffffffffffffffffffffffffffffffffffffffffffffffffffffffff8203612325576123246122b9565b5b600182019050919050565b600060608201905061234560008301866118ea565b81810360208301526123578185611ce3565b905061236660408301846118ea565b949350505050565b7f4e487b7100000000000000000000000000000000000000000000000000000000600052603260045260246000fd5b7f4e487b7100000000000000000000000000000000000000000000000000000000600052601260045260246000fd5b60006123d7826118e0565b91506123e2836118e0565b9250826123f2576123f161239d565b5b828206905092915050565b7f4572726f72207768656e207472616e73666572696e672062616c616e63650000600082015250565b6000612433601e83611f2c565b915061243e826123fd565b602082019050919050565b6000602082019050818103600083015261246281612426565b9050919050565b600061247482611c35565b9050919050565b61248481612469565b82525050565b600060408201905061249f60008301856118ea565b6124ac602083018461247b565b9392505050565b7f4f6e6c792063616c6c61626c65206279206f776e657200000000000000000000600082015250565b60006124e9601683611f2c565b91506124f4826124b3565b602082019050919050565b60006020820190508181036000830152612518816124dc565b9050919050565b61252881611b32565b82525050565b602082016000820151612544600085018261251f565b50505050565b600060208201905061255f600083018461252e565b92915050565b600060408201905061257a6000830185611ef4565b6125876020830184611ef4565b9392505050565b600061ffff82169050919050565b6125a58161258e565b82525050565b600081519050919050565b600082825260208201905092915050565b60005b838110156125e55780820151818401526020810190506125ca565b60008484015250505050565b60006125fc826125ab565b61260681856125b6565b93506126168185602086016125c7565b61261f81611982565b840191505092915050565b600060808201905061263f6000830187611ef4565b61264c602083018661259c565b6126596040830185611ef4565b818103606083015261266b81846125f1565b905095945050505050565b600060608201905061268b60008301866118d1565b61269860208301856118ea565b81810360408301526126aa81846125f1565b9050949350505050565b7f43616e6e6f74207472616e7366657220746f2073656c66000000000000000000600082015250565b60006126ea601783611f2c565b91506126f5826126b4565b602082019050919050565b60006020820190508181036000830152612719816126dd565b905091905056fea26469706673582212201a7f83ce93000bb3bd88bb790989afba147d46f50d3cda5a588cc0ddc44620bd64736f6c634300081c0033",
  "linkReferences": {},
  "deployedLinkReferences": {}
}