{
  "_format": "hh-sol-artifact-1",
  "contractName": "LotteryFactory",
  "sourceName": "contracts/LotteryFactory.sol",
  "abi": [
    {
      "anonymous": false,
      "inputs": [
        {
          "indexed": true,
          "internalType": "address",
          "name": "creator",
          "type": "address"
        },
        {
          "indexed": true,
          "internalType": "address",
          "name": "lotteryAddress",
          "type": "address"
        },
        {
          "indexed": false,
          "internalType": "uint256",
          "name": "maxPlayers",
          "type": "uint256"
        },
        {
          "indexed": false,
          "internalType": "uint256",
          "name": "entryFee",
          "type": "uint256"
        }
      ],
      "name": "LotteryCreated",
      "type": "event"
    },
    {
      "inputs": [
        {
          "internalType": "uint256",
          "name": "_maxPlayers",
          "type": "uint256"
        },
        {
          "internalType": "uint256",
          "name": "_entryFee",
          "type": "uint256"
        },
        {
          "internalType": "address",
          "name": "_owner",
          "type": "address"
        }
      ],
      "name": "createLottery",
      "outputs": [],
      "stateMutability": "nonpayable",
      "type": "function"
    },
    {
      "inputs": [],
      "name": "getLotteriesDetails",
      "outputs": [
        {
          "internalType": "address[]",
          "name": "",
          "type": "address[]"
        },
        {
          "internalType": "uint256[]",
          "name": "",
          "type": "uint256[]"
        },
        {
          "internalType": "uint256[]",
          "name": "",
          "type": "uint256[]"
        },
        {
          "internalType": "uint256[]",
          "name": "",
          "type": "uint256[]"
        },
        {
          "internalType": "address[]",
          "name": "",
          "type": "address[]"
        }
      ],
      "stateMutability": "view",
      "type": "function"
    },
    {
      "inputs": [
        {
          "internalType": "uint256",
          "name": "",
          "type": "uint256"
        }
      ],
      "name": "lotteries",
      "outputs": [
        {
          "internalType": "address",
          "name": "",
          "type": "address"
        }
      ],
      "stateMutability": "view",
      "type": "function"
    },
    {
      "inputs": [
        {
          "internalType": "address",
          "name": "",
          "type": "address"
        }
      ],
      "name": "lotteryCreators",
      "outputs": [
        {
          "internalType": "address",
          "name": "",
          "type": "address"
        }
      ],
      "stateMutability": "view",
      "type": "function"
    }
  ],
  "bytecode": "0x6080604052348015600f57600080fd5b50613a728061001f6000396000f3fe608060405234801561001057600080fd5b506004361061004c5760003560e01c80631398e0761461005157806321752d051461008157806328f3f47d146100b157806379af6311146100d3575b600080fd5b61006b60048036038101906100669190610863565b6100ef565b60405161007891906108d1565b60405180910390f35b61009b60048036038101906100969190610918565b61012e565b6040516100a891906108d1565b60405180910390f35b6100b9610161565b6040516100ca959493929190610ac1565b60405180910390f35b6100ed60048036038101906100e89190610b37565b61068b565b005b600081815481106100ff57600080fd5b906000526020600020016000915054906101000a900473ffffffffffffffffffffffffffffffffffffffff1681565b60016020528060005260406000206000915054906101000a900473ffffffffffffffffffffffffffffffffffffffff1681565b606080606080606060008080549050905060008167ffffffffffffffff81111561018e5761018d610b8a565b5b6040519080825280602002602001820160405280156101bc5781602001602082028036833780820191505090505b50905060008267ffffffffffffffff8111156101db576101da610b8a565b5b6040519080825280602002602001820160405280156102095781602001602082028036833780820191505090505b50905060008367ffffffffffffffff81111561022857610227610b8a565b5b6040519080825280602002602001820160405280156102565781602001602082028036833780820191505090505b50905060008467ffffffffffffffff81111561027557610274610b8a565b5b6040519080825280602002602001820160405280156102a35781602001602082028036833780820191505090505b50905060008567ffffffffffffffff8111156102c2576102c1610b8a565b5b6040519080825280602002602001820160405280156102f05781602001602082028036833780820191505090505b50905060005b8681101561066e57600080828154811061031357610312610bb9565b5b9060005260206000200160009054906101000a900473ffffffffffffffffffffffffffffffffffffffff1690506000828154811061035457610353610bb9565b5b9060005260206000200160009054906101000a900473ffffffffffffffffffffffffffffffffffffffff1687838151811061039257610391610bb9565b5b602002602001019073ffffffffffffffffffffffffffffffffffffffff16908173ffffffffffffffffffffffffffffffffffffffff16815250508073ffffffffffffffffffffffffffffffffffffffff16638cbd9eb86040518163ffffffff1660e01b8152600401602060405180830381865afa158015610417573d6000803e3d6000fd5b505050506040513d601f19601f8201168201806040525081019061043b9190610bfd565b86838151811061044e5761044d610bb9565b5b6020026020010181815250508073ffffffffffffffffffffffffffffffffffffffff1663e586a4f06040518163ffffffff1660e01b8152600401602060405180830381865afa1580156104a5573d6000803e3d6000fd5b505050506040513d601f19601f820116820180604052508101906104c99190610bfd565b8583815181106104dc576104db610bb9565b5b6020026020010181815250508073ffffffffffffffffffffffffffffffffffffffff1663302bcc576040518163ffffffff1660e01b8152600401602060405180830381865afa158015610533573d6000803e3d6000fd5b505050506040513d601f19601f820116820180604052508101906105579190610bfd565b84838151811061056a57610569610bb9565b5b6020026020010181815250506001600080848154811061058d5761058c610bb9565b5b9060005260206000200160009054906101000a900473ffffffffffffffffffffffffffffffffffffffff1673ffffffffffffffffffffffffffffffffffffffff1673ffffffffffffffffffffffffffffffffffffffff16815260200190815260200160002060009054906101000a900473ffffffffffffffffffffffffffffffffffffffff1683838151811061062657610625610bb9565b5b602002602001019073ffffffffffffffffffffffffffffffffffffffff16908173ffffffffffffffffffffffffffffffffffffffff16815250505080806001019150506102f6565b5084848484849a509a509a509a509a505050505050509091929394565b600083838360405161069c9061081b565b6106a893929190610c39565b604051809103906000f0801580156106c4573d6000803e3d6000fd5b50905060008190506000819080600181540180825580915050600190039060005260206000200160009091909190916101000a81548173ffffffffffffffffffffffffffffffffffffffff021916908373ffffffffffffffffffffffffffffffffffffffff16021790555082600160008373ffffffffffffffffffffffffffffffffffffffff1673ffffffffffffffffffffffffffffffffffffffff16815260200190815260200160002060006101000a81548173ffffffffffffffffffffffffffffffffffffffff021916908373ffffffffffffffffffffffffffffffffffffffff1602179055508073ffffffffffffffffffffffffffffffffffffffff168373ffffffffffffffffffffffffffffffffffffffff167ffc150670f87b51c020eff9457b68015a26bd37e239c372677ab2e9df135a968d878760405161080c929190610c70565b60405180910390a35050505050565b612da380610c9a83390190565b600080fd5b6000819050919050565b6108408161082d565b811461084b57600080fd5b50565b60008135905061085d81610837565b92915050565b60006020828403121561087957610878610828565b5b60006108878482850161084e565b91505092915050565b600073ffffffffffffffffffffffffffffffffffffffff82169050919050565b60006108bb82610890565b9050919050565b6108cb816108b0565b82525050565b60006020820190506108e660008301846108c2565b92915050565b6108f5816108b0565b811461090057600080fd5b50565b600081359050610912816108ec565b92915050565b60006020828403121561092e5761092d610828565b5b600061093c84828501610903565b91505092915050565b600081519050919050565b600082825260208201905092915050565b6000819050602082019050919050565b61097a816108b0565b82525050565b600061098c8383610971565b60208301905092915050565b6000602082019050919050565b60006109b082610945565b6109ba8185610950565b93506109c583610961565b8060005b838110156109f65781516109dd8882610980565b97506109e883610998565b9250506001810190506109c9565b5085935050505092915050565b600081519050919050565b600082825260208201905092915050565b6000819050602082019050919050565b610a388161082d565b82525050565b6000610a4a8383610a2f565b60208301905092915050565b6000602082019050919050565b6000610a6e82610a03565b610a788185610a0e565b9350610a8383610a1f565b8060005b83811015610ab4578151610a9b8882610a3e565b9750610aa683610a56565b925050600181019050610a87565b5085935050505092915050565b600060a0820190508181036000830152610adb81886109a5565b90508181036020830152610aef8187610a63565b90508181036040830152610b038186610a63565b90508181036060830152610b178185610a63565b90508181036080830152610b2b81846109a5565b90509695505050505050565b600080600060608486031215610b5057610b4f610828565b5b6000610b5e8682870161084e565b9350506020610b6f8682870161084e565b9250506040610b8086828701610903565b9150509250925092565b7f4e487b7100000000000000000000000000000000000000000000000000000000600052604160045260246000fd5b7f4e487b7100000000000000000000000000000000000000000000000000000000600052603260045260246000fd5b600081519050610bf781610837565b92915050565b600060208284031215610c1357610c12610828565b5b6000610c2184828501610be8565b91505092915050565b610c338161082d565b82525050565b6000606082019050610c4e6000830186610c2a565b610c5b6020830185610c2a565b610c6860408301846108c2565b949350505050565b6000604082019050610c856000830185610c2a565b610c926020830184610c2a565b939250505056fe61010060405234801561001157600080fd5b50604051612da3380380612da38339818101604052810190610033919061041f565b8080600073195f15f2d49d693ce265b4fb0fddbe15b1850cc160008190508073ffffffffffffffffffffffffffffffffffffffff16631c4695f46040518163ffffffff1660e01b8152600401602060405180830381865afa15801561009c573d6000803e3d6000fd5b505050506040513d601f19601f820116820180604052508101906100c09190610472565b73ffffffffffffffffffffffffffffffffffffffff1660808173ffffffffffffffffffffffffffffffffffffffff16815250508073ffffffffffffffffffffffffffffffffffffffff1660a08173ffffffffffffffffffffffffffffffffffffffff16815250505050600073ffffffffffffffffffffffffffffffffffffffff168273ffffffffffffffffffffffffffffffffffffffff1603610198576040517f08c379a000000000000000000000000000000000000000000000000000000000815260040161018f906104fc565b60405180910390fd5b816000806101000a81548173ffffffffffffffffffffffffffffffffffffffff021916908373ffffffffffffffffffffffffffffffffffffffff160217905550600073ffffffffffffffffffffffffffffffffffffffff168173ffffffffffffffffffffffffffffffffffffffff161461021c5761021b8161025a60201b60201c565b5b5050508260c081815250508160e0818152505060006005819055506001600760006101000a81548160ff021916908315150217905550505050610588565b3373ffffffffffffffffffffffffffffffffffffffff168173ffffffffffffffffffffffffffffffffffffffff16036102c8576040517f08c379a00000000000000000000000000000000000000000000000000000000081526004016102bf90610568565b60405180910390fd5b80600160006101000a81548173ffffffffffffffffffffffffffffffffffffffff021916908373ffffffffffffffffffffffffffffffffffffffff1602179055508073ffffffffffffffffffffffffffffffffffffffff1660008054906101000a900473ffffffffffffffffffffffffffffffffffffffff1673ffffffffffffffffffffffffffffffffffffffff167fed8889f560326eb138920d842192f0eb3dd22b4f139c87a2c57538e05bae127860405160405180910390a350565b600080fd5b6000819050919050565b61039e8161038b565b81146103a957600080fd5b50565b6000815190506103bb81610395565b92915050565b600073ffffffffffffffffffffffffffffffffffffffff82169050919050565b60006103ec826103c1565b9050919050565b6103fc816103e1565b811461040757600080fd5b50565b600081519050610419816103f3565b92915050565b60008060006060848603121561043857610437610386565b5b6000610446868287016103ac565b9350506020610457868287016103ac565b92505060406104688682870161040a565b9150509250925092565b60006020828403121561048857610487610386565b5b60006104968482850161040a565b91505092915050565b600082825260208201905092915050565b7f43616e6e6f7420736574206f776e657220746f207a65726f0000000000000000600082015250565b60006104e660188361049f565b91506104f1826104b0565b602082019050919050565b60006020820190508181036000830152610515816104d9565b9050919050565b7f43616e6e6f74207472616e7366657220746f2073656c66000000000000000000600082015250565b600061055260178361049f565b915061055d8261051c565b602082019050919050565b6000602082019050818103600083015261058181610545565b9050919050565b60805160a05160c05160e0516127a361060060003960008181610d6a0152610e07015260008181610a810152610e6901526000818161051401528181610c2a015281816113eb015281816114890152818161153a0152818161161401526116be015260008181610d9201526115d801526127a36000f3fe60806040526004361061012e5760003560e01c80638da5cb5b116100ab578063e76d51681161006f578063e76d516814610404578063e97dcb621461042f578063f2fde38b14610439578063f71d96cb14610462578063fc2a88c31461049f578063fc702cc1146104ca5761016e565b80638da5cb5b1461032d5780638dc654a2146103585780639ed0868d1461036f578063d8a4676f1461039a578063e586a4f0146103d95761016e565b80637392a771116100f25780637392a7711461024857806379ba50971461028557806384276d811461029c5780638796ba8c146102c55780638cbd9eb8146103025761016e565b806312065fe0146101735780631fe543e31461019e57806322f3e2d4146101c7578063302bcc57146101f257806350c5f9751461021d5761016e565b3661016e577f88a5966d370b9919b20f3e2c13ff65706f196a4e32cc2c12bf57088f885258743334604051610164929190611946565b60405180910390a1005b600080fd5b34801561017f57600080fd5b50610188610508565b604051610195919061196f565b60405180910390f35b3480156101aa57600080fd5b506101c560048036038101906101c09190611b23565b610510565b005b3480156101d357600080fd5b506101dc6105b6565b6040516101e99190611b9a565b60405180910390f35b3480156101fe57600080fd5b506102076105c9565b604051610214919061196f565b60405180910390f35b34801561022957600080fd5b506102326105cf565b60405161023f919061196f565b60405180910390f35b34801561025457600080fd5b5061026f600480360381019061026a9190611be1565b610664565b60405161027c919061196f565b60405180910390f35b34801561029157600080fd5b5061029a610805565b005b3480156102a857600080fd5b506102c360048036038101906102be9190611c0e565b61099a565b005b3480156102d157600080fd5b506102ec60048036038101906102e79190611c0e565b610a59565b6040516102f9919061196f565b60405180910390f35b34801561030e57600080fd5b50610317610a7d565b604051610324919061196f565b60405180910390f35b34801561033957600080fd5b50610342610aa5565b60405161034f9190611c3b565b60405180910390f35b34801561036457600080fd5b5061036d610ace565b005b34801561037b57600080fd5b50610384610c28565b6040516103919190611cb5565b60405180910390f35b3480156103a657600080fd5b506103c160048036038101906103bc9190611c0e565b610c4c565b6040516103d093929190611d8e565b60405180910390f35b3480156103e557600080fd5b506103ee610d66565b6040516103fb919061196f565b60405180910390f35b34801561041057600080fd5b50610419610d8e565b6040516104269190611ded565b60405180910390f35b610437610db6565b005b34801561044557600080fd5b50610460600480360381019061045b9190611e34565b610f9b565b005b34801561046e57600080fd5b5061048960048036038101906104849190611c0e565b610faf565b6040516104969190611e82565b60405180910390f35b3480156104ab57600080fd5b506104b4610fee565b6040516104c1919061196f565b60405180910390f35b3480156104d657600080fd5b506104f160048036038101906104ec9190611c0e565b610ff4565b6040516104ff929190611e9d565b60405180910390f35b600047905090565b60007f000000000000000000000000000000000000000000000000000000000000000090508073ffffffffffffffffffffffffffffffffffffffff163373ffffffffffffffffffffffffffffffffffffffff16146105a75733816040517f8ba9316e00000000000000000000000000000000000000000000000000000000815260040161059e929190611ec6565b60405180910390fd5b6105b18383611025565b505050565b600760009054906101000a900460ff1681565b60055481565b600073779877a7b0d9e8603169ddbd7836e478b462478973ffffffffffffffffffffffffffffffffffffffff166370a08231306040518263ffffffff1660e01b815260040161061e9190611c3b565b602060405180830381865afa15801561063b573d6000803e3d6000fd5b505050506040513d601f19601f8201168201806040525081019061065f9190611f04565b905090565b600061066e6112be565b6000610689604051806020016040528085151581525061134e565b905060008084156106b2576106a5620186a060036001866113e6565b80925081935050506106cc565b6106c3620186a06003600186611535565b80925081935050505b6040518060600160405280828152602001600015158152602001600067ffffffffffffffff811115610701576107006119e0565b5b60405190808252806020026020018201604052801561072f5781602001602082028036833780820191505090505b50815250600460008481526020019081526020016000206000820151816000015560208201518160010160006101000a81548160ff021916908315150217905550604082015181600201908051906020019061078c929190611882565b509050506002829080600181540180825580915050600190039060005260206000200160009091909190915055816003819055507fcc58b13ad3eab50626c6a6300b1d139cd6ebb1688a7cced9461c2f7e762665ee8260016040516107f2929190611f50565b60405180910390a1819350505050919050565b600160009054906101000a900473ffffffffffffffffffffffffffffffffffffffff1673ffffffffffffffffffffffffffffffffffffffff163373ffffffffffffffffffffffffffffffffffffffff1614610895576040517f08c379a000000000000000000000000000000000000000000000000000000000815260040161088c90611fd6565b60405180910390fd5b60008060009054906101000a900473ffffffffffffffffffffffffffffffffffffffff169050336000806101000a81548173ffffffffffffffffffffffffffffffffffffffff021916908373ffffffffffffffffffffffffffffffffffffffff1602179055506000600160006101000a81548173ffffffffffffffffffffffffffffffffffffffff021916908373ffffffffffffffffffffffffffffffffffffffff1602179055503373ffffffffffffffffffffffffffffffffffffffff168173ffffffffffffffffffffffffffffffffffffffff167f8be0079c531659141344cd1fd0a4f28419497f9722a3daafe3b4186f6b6457e060405160405180910390a350565b6109a26112be565b60006109ac610aa5565b73ffffffffffffffffffffffffffffffffffffffff16826040516109cf90612027565b60006040518083038185875af1925050503d8060008114610a0c576040519150601f19603f3d011682016040523d82523d6000602084013e610a11565b606091505b5050905080610a55576040517f08c379a0000000000000000000000000000000000000000000000000000000008152600401610a4c90612088565b60405180910390fd5b5050565b60028181548110610a6957600080fd5b906000526020600020016000915090505481565b60007f0000000000000000000000000000000000000000000000000000000000000000905090565b60008060009054906101000a900473ffffffffffffffffffffffffffffffffffffffff16905090565b610ad66112be565b600073779877a7b0d9e8603169ddbd7836e478b462478990508073ffffffffffffffffffffffffffffffffffffffff1663a9059cbb338373ffffffffffffffffffffffffffffffffffffffff166370a08231306040518263ffffffff1660e01b8152600401610b459190611c3b565b602060405180830381865afa158015610b62573d6000803e3d6000fd5b505050506040513d601f19601f82011682018060405250810190610b869190611f04565b6040518363ffffffff1660e01b8152600401610ba3929190611946565b6020604051808303816000875af1158015610bc2573d6000803e3d6000fd5b505050506040513d601f19601f82011682018060405250810190610be691906120bd565b610c25576040517f08c379a0000000000000000000000000000000000000000000000000000000008152600401610c1c90612136565b60405180910390fd5b50565b7f000000000000000000000000000000000000000000000000000000000000000081565b60008060606000600460008681526020019081526020016000206000015411610caa576040517f08c379a0000000000000000000000000000000000000000000000000000000008152600401610ca1906121a2565b60405180910390fd5b600060046000868152602001908152602001600020604051806060016040529081600082015481526020016001820160009054906101000a900460ff1615151515815260200160028201805480602002602001604051908101604052809291908181526020018280548015610d3e57602002820191906000526020600020905b815481526020019060010190808311610d2a575b5050505050815250509050806000015181602001518260400151935093509350509193909250565b60007f0000000000000000000000000000000000000000000000000000000000000000905090565b60007f0000000000000000000000000000000000000000000000000000000000000000905090565b600760009054906101000a900460ff16610e05576040517f08c379a0000000000000000000000000000000000000000000000000000000008152600401610dfc9061220e565b60405180910390fd5b7f00000000000000000000000000000000000000000000000000000000000000003414610e67576040517f08c379a0000000000000000000000000000000000000000000000000000000008152600401610e5e9061227a565b60405180910390fd5b7f000000000000000000000000000000000000000000000000000000000000000060068054905010610ece576040517f08c379a0000000000000000000000000000000000000000000000000000000008152600401610ec5906122e6565b60405180910390fd5b6006339080600181540180825580915050600190039060005260206000200160009091909190916101000a81548173ffffffffffffffffffffffffffffffffffffffff021916908373ffffffffffffffffffffffffffffffffffffffff16021790555060056000815480929190610f4490612335565b91905055503373ffffffffffffffffffffffffffffffffffffffff167fc16481c9484122696a660b57df0bf6839645c6b620cb1704ac2437de13be9225600554604051610f91919061196f565b60405180910390a2565b610fa36112be565b610fac81611756565b50565b60068181548110610fbf57600080fd5b906000526020600020016000915054906101000a900473ffffffffffffffffffffffffffffffffffffffff1681565b60035481565b60046020528060005260406000206000915090508060000154908060010160009054906101000a900460ff16905082565b600060046000848152602001908152602001600020600001541161107e576040517f08c379a0000000000000000000000000000000000000000000000000000000008152600401611075906121a2565b60405180910390fd5b60016004600084815260200190815260200160002060010160006101000a81548160ff021916908315150217905550806004600084815260200190815260200160002060020190805190602001906110d7929190611882565b507f147eb1ff0c82f87f2b03e2c43f5a36488ff63ec6b730195fde4605f612f8db51828260046000868152602001908152602001600020600001546040516111219392919061237d565b60405180910390a1600060068054905082600081518110611145576111446123bb565b5b60200260200101516111579190612419565b905060006006828154811061116f5761116e6123bb565b5b9060005260206000200160009054906101000a900473ffffffffffffffffffffffffffffffffffffffff16905060008173ffffffffffffffffffffffffffffffffffffffff16476040516111c290612027565b60006040518083038185875af1925050503d80600081146111ff576040519150601f19603f3d011682016040523d82523d6000602084013e611204565b606091505b5050905080611248576040517f08c379a000000000000000000000000000000000000000000000000000000000815260040161123f90612496565b60405180910390fd5b6000600760006101000a81548160ff0219169083151502179055507fe983b889c5b0419f1fb6aded8b9552b95691be88059a486820b5c342ebf974f484600081518110611298576112976123bb565b5b6020026020010151836040516112af9291906124d7565b60405180910390a15050505050565b60008054906101000a900473ffffffffffffffffffffffffffffffffffffffff1673ffffffffffffffffffffffffffffffffffffffff163373ffffffffffffffffffffffffffffffffffffffff161461134c576040517f08c379a00000000000000000000000000000000000000000000000000000000081526004016113439061254c565b60405180910390fd5b565b60607f92fd13387c7fe7befbc38d303d6468778fb9731bc4583f17d92989c6fcfdeaaa826040516024016113829190612597565b604051602081830303815290604052907bffffffffffffffffffffffffffffffffffffffffffffffffffffffff19166020820180517bffffffffffffffffffffffffffffffffffffffffffffffffffffffff83818316178352505050509050919050565b6000807f000000000000000000000000000000000000000000000000000000000000000073ffffffffffffffffffffffffffffffffffffffff166313c34b7f87866040518363ffffffff1660e01b81526004016114449291906125b2565b602060405180830381865afa158015611461573d6000803e3d6000fd5b505050506040513d601f19601f820116820180604052508101906114859190611f04565b90507f000000000000000000000000000000000000000000000000000000000000000073ffffffffffffffffffffffffffffffffffffffff16639cfc058e82888888886040518663ffffffff1660e01b81526004016114e79493929190612677565b60206040518083038185885af1158015611505573d6000803e3d6000fd5b50505050506040513d601f19601f8201168201806040525081019061152a9190611f04565b915094509492505050565b6000807f000000000000000000000000000000000000000000000000000000000000000073ffffffffffffffffffffffffffffffffffffffff166327e5c50a87866040518363ffffffff1660e01b81526004016115939291906125b2565b602060405180830381865afa1580156115b0573d6000803e3d6000fd5b505050506040513d601f19601f820116820180604052508101906115d49190611f04565b90507f000000000000000000000000000000000000000000000000000000000000000073ffffffffffffffffffffffffffffffffffffffff16634000aea07f0000000000000000000000000000000000000000000000000000000000000000838989898960405160200161164b9493929190612677565b6040516020818303038152906040526040518463ffffffff1660e01b8152600401611678939291906126c3565b6020604051808303816000875af1158015611697573d6000803e3d6000fd5b505050506040513d601f19601f820116820180604052508101906116bb91906120bd565b507f000000000000000000000000000000000000000000000000000000000000000073ffffffffffffffffffffffffffffffffffffffff1663fc2a88c36040518163ffffffff1660e01b8152600401602060405180830381865afa158015611727573d6000803e3d6000fd5b505050506040513d601f19601f8201168201806040525081019061174b9190611f04565b915094509492505050565b3373ffffffffffffffffffffffffffffffffffffffff168173ffffffffffffffffffffffffffffffffffffffff16036117c4576040517f08c379a00000000000000000000000000000000000000000000000000000000081526004016117bb9061274d565b60405180910390fd5b80600160006101000a81548173ffffffffffffffffffffffffffffffffffffffff021916908373ffffffffffffffffffffffffffffffffffffffff1602179055508073ffffffffffffffffffffffffffffffffffffffff1660008054906101000a900473ffffffffffffffffffffffffffffffffffffffff1673ffffffffffffffffffffffffffffffffffffffff167fed8889f560326eb138920d842192f0eb3dd22b4f139c87a2c57538e05bae127860405160405180910390a350565b8280548282559060005260206000209081019282156118be579160200282015b828111156118bd5782518255916020019190600101906118a2565b5b5090506118cb91906118cf565b5090565b5b808211156118e85760008160009055506001016118d0565b5090565b600073ffffffffffffffffffffffffffffffffffffffff82169050919050565b6000611917826118ec565b9050919050565b6119278161190c565b82525050565b6000819050919050565b6119408161192d565b82525050565b600060408201905061195b600083018561191e565b6119686020830184611937565b9392505050565b60006020820190506119846000830184611937565b92915050565b6000604051905090565b600080fd5b600080fd5b6119a78161192d565b81146119b257600080fd5b50565b6000813590506119c48161199e565b92915050565b600080fd5b6000601f19601f8301169050919050565b7f4e487b7100000000000000000000000000000000000000000000000000000000600052604160045260246000fd5b611a18826119cf565b810181811067ffffffffffffffff82111715611a3757611a366119e0565b5b80604052505050565b6000611a4a61198a565b9050611a568282611a0f565b919050565b600067ffffffffffffffff821115611a7657611a756119e0565b5b602082029050602081019050919050565b600080fd5b6000611a9f611a9a84611a5b565b611a40565b90508083825260208201905060208402830185811115611ac257611ac1611a87565b5b835b81811015611aeb5780611ad788826119b5565b845260208401935050602081019050611ac4565b5050509392505050565b600082601f830112611b0a57611b096119ca565b5b8135611b1a848260208601611a8c565b91505092915050565b60008060408385031215611b3a57611b39611994565b5b6000611b48858286016119b5565b925050602083013567ffffffffffffffff811115611b6957611b68611999565b5b611b7585828601611af5565b9150509250929050565b60008115159050919050565b611b9481611b7f565b82525050565b6000602082019050611baf6000830184611b8b565b92915050565b611bbe81611b7f565b8114611bc957600080fd5b50565b600081359050611bdb81611bb5565b92915050565b600060208284031215611bf757611bf6611994565b5b6000611c0584828501611bcc565b91505092915050565b600060208284031215611c2457611c23611994565b5b6000611c32848285016119b5565b91505092915050565b6000602082019050611c50600083018461191e565b92915050565b6000819050919050565b6000611c7b611c76611c71846118ec565b611c56565b6118ec565b9050919050565b6000611c8d82611c60565b9050919050565b6000611c9f82611c82565b9050919050565b611caf81611c94565b82525050565b6000602082019050611cca6000830184611ca6565b92915050565b600081519050919050565b600082825260208201905092915050565b6000819050602082019050919050565b611d058161192d565b82525050565b6000611d178383611cfc565b60208301905092915050565b6000602082019050919050565b6000611d3b82611cd0565b611d458185611cdb565b9350611d5083611cec565b8060005b83811015611d81578151611d688882611d0b565b9750611d7383611d23565b925050600181019050611d54565b5085935050505092915050565b6000606082019050611da36000830186611937565b611db06020830185611b8b565b8181036040830152611dc28184611d30565b9050949350505050565b6000611dd782611c82565b9050919050565b611de781611dcc565b82525050565b6000602082019050611e026000830184611dde565b92915050565b611e118161190c565b8114611e1c57600080fd5b50565b600081359050611e2e81611e08565b92915050565b600060208284031215611e4a57611e49611994565b5b6000611e5884828501611e1f565b91505092915050565b6000611e6c826118ec565b9050919050565b611e7c81611e61565b82525050565b6000602082019050611e976000830184611e73565b92915050565b6000604082019050611eb26000830185611937565b611ebf6020830184611b8b565b9392505050565b6000604082019050611edb600083018561191e565b611ee8602083018461191e565b9392505050565b600081519050611efe8161199e565b92915050565b600060208284031215611f1a57611f19611994565b5b6000611f2884828501611eef565b91505092915050565b600063ffffffff82169050919050565b611f4a81611f31565b82525050565b6000604082019050611f656000830185611937565b611f726020830184611f41565b9392505050565b600082825260208201905092915050565b7f4d7573742062652070726f706f736564206f776e657200000000000000000000600082015250565b6000611fc0601683611f79565b9150611fcb82611f8a565b602082019050919050565b60006020820190508181036000830152611fef81611fb3565b9050919050565b600081905092915050565b50565b6000612011600083611ff6565b915061201c82612001565b600082019050919050565b600061203282612004565b9150819050919050565b7f77697468647261774e6174697665206661696c65640000000000000000000000600082015250565b6000612072601583611f79565b915061207d8261203c565b602082019050919050565b600060208201905081810360008301526120a181612065565b9050919050565b6000815190506120b781611bb5565b92915050565b6000602082840312156120d3576120d2611994565b5b60006120e1848285016120a8565b91505092915050565b7f556e61626c6520746f207472616e736665720000000000000000000000000000600082015250565b6000612120601283611f79565b915061212b826120ea565b602082019050919050565b6000602082019050818103600083015261214f81612113565b9050919050565b7f72657175657374206e6f7420666f756e64000000000000000000000000000000600082015250565b600061218c601183611f79565b915061219782612156565b602082019050919050565b600060208201905081810360008301526121bb8161217f565b9050919050565b7f4c6f7474657279206973206e6f74206163746976650000000000000000000000600082015250565b60006121f8601583611f79565b9150612203826121c2565b602082019050919050565b60006020820190508181036000830152612227816121eb565b9050919050565b7f496e636f727265637420656e7472792066656500000000000000000000000000600082015250565b6000612264601383611f79565b915061226f8261222e565b602082019050919050565b6000602082019050818103600083015261229381612257565b9050919050565b7f4d617820706c6179657273207265616368656400000000000000000000000000600082015250565b60006122d0601383611f79565b91506122db8261229a565b602082019050919050565b600060208201905081810360008301526122ff816122c3565b9050919050565b7f4e487b7100000000000000000000000000000000000000000000000000000000600052601160045260246000fd5b60006123408261192d565b91507fffffffffffffffffffffffffffffffffffffffffffffffffffffffffffffffff820361237257612371612306565b5b600182019050919050565b60006060820190506123926000830186611937565b81810360208301526123a48185611d30565b90506123b36040830184611937565b949350505050565b7f4e487b7100000000000000000000000000000000000000000000000000000000600052603260045260246000fd5b7f4e487b7100000000000000000000000000000000000000000000000000000000600052601260045260246000fd5b60006124248261192d565b915061242f8361192d565b92508261243f5761243e6123ea565b5b828206905092915050565b7f4572726f72207768656e207472616e73666572696e672062616c616e63650000600082015250565b6000612480601e83611f79565b915061248b8261244a565b602082019050919050565b600060208201905081810360008301526124af81612473565b9050919050565b60006124c182611c82565b9050919050565b6124d1816124b6565b82525050565b60006040820190506124ec6000830185611937565b6124f960208301846124c8565b9392505050565b7f4f6e6c792063616c6c61626c65206279206f776e657200000000000000000000600082015250565b6000612536601683611f79565b915061254182612500565b602082019050919050565b6000602082019050818103600083015261256581612529565b9050919050565b61257581611b7f565b82525050565b602082016000820151612591600085018261256c565b50505050565b60006020820190506125ac600083018461257b565b92915050565b60006040820190506125c76000830185611f41565b6125d46020830184611f41565b9392505050565b600061ffff82169050919050565b6125f2816125db565b82525050565b600081519050919050565b600082825260208201905092915050565b60005b83811015612632578082015181840152602081019050612617565b60008484015250505050565b6000612649826125f8565b6126538185612603565b9350612663818560208601612614565b61266c816119cf565b840191505092915050565b600060808201905061268c6000830187611f41565b61269960208301866125e9565b6126a66040830185611f41565b81810360608301526126b8818461263e565b905095945050505050565b60006060820190506126d8600083018661191e565b6126e56020830185611937565b81810360408301526126f7818461263e565b9050949350505050565b7f43616e6e6f74207472616e7366657220746f2073656c66000000000000000000600082015250565b6000612737601783611f79565b915061274282612701565b602082019050919050565b600060208201905081810360008301526127668161272a565b905091905056fea26469706673582212200abbf1583599f72e64587db3ce46226861c7fa984f07bf8b7fc6691a7c9d6f0364736f6c634300081c0033a2646970667358221220204e2dae4264d5e54542fa99b9fba74b92e5c399c05b6c9ba33ae5f445d504d364736f6c634300081c0033",
  "linkReferences": {},
  "deployedLinkReferences": {}
}